S015000066335F7368656C6C5F64656D6F2E73726563FB
S3150800000000A0002031320008753200087532000859
S3150800001075320008753200087532000800000000C5
S315080000200000000000000000000000007532000813
S3150800003075320008000000007532000875320008A5
S3150800004075320008753200087532000875320008E6
S3150800005075320008753200087532000875320008D6
S3150800006075320008753200087532000875320008C6
S3150800007075320008753200087532000875320008B6
S3150800008075320008753200087532000875320008A6
S315080000907532000875320008753200087532000896
S315080000A07532000875320008753200087532000886
S315080000B07532000875320008753200087532000876
S315080000C07532000875320008753200087532000866
S315080000D07532000875320008753200087532000856
S315080000E07532000875320008753200087532000846
S315080000F07532000875320008753200087532000836
S315080001000000000000000000000000007532000832
S315080001107532000875320008612900087532000832
S315080001207532000875320008753200087532000805
S315080001307532000875320008000000000000000053
S315080001407532000875320008753200080000000094
S315080001500000000000000000000000000000000091
S315080001600000000000000000753200087532000823
S3150800017075320008000000000000000000000000C2
S30D080001800000000075320008BA
S315080001C010B5054C237833B9044B13B10448AFF383
S315080001D000800123237010BDB40900200000000030
S315080001E080040108084B10B51BB108490848AFF34D
S315080001F000800848036803B910BD074B002BFBD0E5
S31508000200BDE81040184700BF00000000B8090020EC
S3150800021080040108B4090020000000000000000066
S3150800022000000000000000000000000000000000C0
S3150800023000000000000000000000000000000000B0
S3150800024090F800F06DE9024520F007016FF0000C08
S3150800025010F0070491F820F040F049804FF00004B0
S315080002606FF00700D1E9002391F840F000F108008B
S3150800027082FA4CF2A4FA8CF283FA4CF3A2FA8CF3C3
S315080002804BBBD1E9022382FA4CF200F10800A4FA2A
S315080002908CF283FA4CF3A2FA8CF3E3B9D1E904237E
S315080002A082FA4CF200F10800A4FA8CF283FA4CF3B5
S315080002B0A2FA8CF37BB9D1E9062301F1200182FA6F
S315080002C04CF200F10800A4FA8CF283FA4CF3A2FA75
S315080002D08CF3002BC6D0002A04BF04301A4612BA83
S315080002E0B2FA82F2FDE8024500EBD2007047D1E986
S315080002F0002304F00305C4F100004FEAC50514F015
S31508000300040F91F840F00CFA05F562EA05021CBFE5
S3150800031063EA050362464FF00004A9E700000000FF
S3150800032001F0FF01102A2BDB10F0070F08D010F898
S31508000330013B013A8B422DD010F0070F42B3F6D19C
S31508000340F0B441EA012141EA014122F007047FF0B5
S3150800035000070023F0E80256083C85EA010586EA0C
S31508000360010685FA47F5A3FA87F586FA47F6A5FA48
S3150800037087F68EB9EED1F0BC01F0FF0102F0070254
S3150800038032B110F8013B013A83EA010313B1F8D1FF
S315080003900020704701387047002D06BF35460338E0
S315080003A0073815F0010F07D1013015F4807F02BF19
S315080003B0013015F4C03F0130F0BC0138704700BF6A
S315080003C0844641EA000313F003036DD1403A41D352
S315080003D051F8043B40F8043B51F8043B40F8043B11
S315080003E051F8043B40F8043B51F8043B40F8043B01
S315080003F051F8043B40F8043B51F8043B40F8043BF1
S3150800040051F8043B40F8043B51F8043B40F8043BE0
S3150800041051F8043B40F8043B51F8043B40F8043BD0
S3150800042051F8043B40F8043B51F8043B40F8043BC0
S3150800043051F8043B40F8043B51F8043B40F8043BB0
S3150800044051F8043B40F8043B51F8043B40F8043BA0
S31508000450403ABDD2303211D351F8043B40F8043B40
S3150800046051F8043B40F8043B51F8043B40F8043B80
S3150800047051F8043B40F8043B103AEDD20C3205D350
S3150800048051F8043B40F8043B043AF9D2043208D048
S31508000490D2071CBF11F8013B00F8013B01D30B88BA
S315080004A003806046704700BF082A13D38B078DD098
S315080004B010F003038AD0C3F10403D21ADB071CBF6A
S315080004C011F8013B00F8013B80D331F8023B20F8D4
S315080004D0023B7BE7043AD9D3013A11F8013B00F80D
S315080004E0013BF9D20B7803704B7843708B78837095
S315080004F06046704781F0004102E000BF83F0004388
S3150800050030B54FEA41044FEA430594EA050F08BFA0
S3150800051090EA020F1FBF54EA000C55EA020C7FEA64
S31508000520645C7FEA655C00F0E2804FEA5454D4EBE1
S315080005305555B8BF6D420CDD2C4480EA020281EAAB
S31508000540030382EA000083EA010180EA020281EAE3
S315080005500303362D88BF30BD11F0004F4FEA013135
S315080005604FF4801C4CEA113102D0404261EB410144
S3150800057013F0004F4FEA03334CEA133302D05242CA
S3150800058063EB430394EA050F00F0A780A4F1010486
S31508000590D5F1200E0DDB02FA0EFC22FA05F28018C0
S315080005A041F1000103FA0EF2801843FA05F35941A6
S315080005B00EE0A5F120050EF1200E012A03FA0EFC25
S315080005C028BF4CF0020C43FA05F3C01851EBE3714F
S315080005D001F0004507D54FF0000EDCF1000C7EEB6C
S315080005E000006EEB0101B1F5801F1BD3B1F5001FAA
S315080005F00CD349085FEA30004FEA3C0C04F10104C9
S315080006004FEA445212F5800F80F09A80BCF1004FF1
S3150800061008BF5FEA500C50F1000041EB045141EA73
S31508000620050130BD5FEA4C0C404141EB010111F474
S31508000630801FA4F10104E9D191F0000F04BF01461F
S315080006400020B1FA81F308BF2033A3F10B03B3F1FD
S3150800065020020CDA0C3208DD02F1140CC2F10C028D
S3150800066001FA0CF021FA02F10CE002F11402D8BFEB
S31508000670C2F1200C01FA02F120FA0CFCDCBF41EAB7
S315080006800C019040E41AA2BF01EB0451294330BD86
S315080006906FEA04041F3C1CDA0C340EDC04F1140463
S315080006A0C4F1200220FA04F001FA02F340EA03003A
S315080006B021FA04F345EA030130BDC4F10C04C4F180
S315080006C0200220FA02F001FA04F340EA0300294660
S315080006D030BD21FA04F0294630BD94F0000F83F4AA
S315080006E0801306BF81F480110134013D4EE77FEA8D
S315080006F0645C18BF7FEA655C29D094EA050F08BFD9
S3150800070090EA020F05D054EA000C04BF19461046B9
S3150800071030BD91EA030F1EBF0021002030BD5FEAFD
S31508000720545C05D14000494128BF41F0004130BD25
S3150800073014F580043CBF01F5801130BD01F0004579
S3150800074045F0FE4141F470014FF0000030BD7FEAEC
S31508000750645C1ABF194610467FEA655C1CBF0B46E7
S31508000760024650EA013406BF52EA033591EA030FFE
S3150800077041F4002130BD00BF90F0000F04BF0021F6
S31508000780704730B54FF4806404F132044FF0000529
S315080007904FF0000150E700BF90F0000F04BF0021A2
S315080007A0704730B54FF4806404F1320410F0004508
S315080007B048BF40424FF000013EE700BF42004FEA03
S315080007C0E2014FEA31014FEA02701FBF12F07F4380
S315080007D093F07F4F81F06051704792F0000F14BF7D
S315080007E093F07F4F704730B54FF4607401F00045C1
S315080007F021F0004120E700BF50EA010208BF704718
S3150800080030B54FF000050AE050EA010208BF70470C
S3150800081030B511F0004502D5404261EB41014FF475
S31508000820806404F132045FEA915C3FF4DCAE4FF079
S3150800083003025FEADC0C18BF03325FEADC0C18BF60
S31508000840033202EBDC02C2F1200300FA03FC20FAB1
S3150800085002F001FA03FE40EA0E0021FA02F11444FE
S31508000860C1E600BF70B54FF0FF0C4CF4E06C1CEA13
S3150800087011541DBF1CEA135594EA0C0F95EA0C0F88
S3150800088000F0DEF82C4481EA030621EA4C5123EAFB
S315080008904C5350EA013518BF52EA033541F480112A
S315080008A043F4801338D0A0FB02CE4FF00005E1FBDD
S315080008B002E506F00042E0FB03E54FF00006E1FB27
S315080008C003569CF0000F18BF4EF0010EA4F1FF046A
S315080008D0B6F5007F64F5407404D25FEA4E0E6D41AA
S315080008E046EB060642EAC62141EA55514FEAC520BB
S315080008F040EA5E504FEACE2EB4F1FD0C88BFBCF537
S31508000900E06F1ED8BEF1004F08BF5FEA500E50F1E7
S31508000910000041EB045170BD06F0004646EA0101AD
S3150800092040EA020081EA0301B4EB5C04C2BFD4EBDF
S315080009300C0541EA045170BD41F480114FF0000ED8
S31508000940013C00F3AB8014F1360FDEBF002001F046
S31508000950004170BDC4F10004203C35DA0C341BDCC0
S3150800096004F11404C4F1200500FA05F320FA04F092
S3150800097001FA05F240EA020001F0004221F00041C6
S3150800098010EBD37021FA04F642EB06015EEA430E39
S3150800099008BF20EAD37070BDC4F10C04C4F1200569
S315080009A000FA04F320FA05F001FA04F240EA02001C
S315080009B001F0004110EBD37041F100015EEA430EED
S315080009C008BF20EAD37070BDC4F1200500FA05F20D
S315080009D04EEA020E20FA04F301FA05F243EA02038C
S315080009E021FA04F001F0004121FA04F220EA02009B
S315080009F000EBD3705EEA430E08BF20EAD37070BDE1
S31508000A0094F0000F0FD101F00046400041EB0101C0
S31508000A1011F4801F08BF013CF7D041EA060195F0A2
S31508000A20000F18BF704703F00046520043EB03035C
S31508000A3013F4801F08BF013DF7D043EA0603704749
S31508000A4094EA0C0F0CEA135518BF95EA0C0F0CD054
S31508000A5050EA410618BF52EA4306D1D181EA03019A
S31508000A6001F000414FF0000070BD50EA410606BF94
S31508000A701046194652EA430619D094EA0C0F02D1D9
S31508000A8050EA013613D195EA0C0F05D152EA03361E
S31508000A901CBF104619460AD181EA030101F000413C
S31508000AA041F0FE4141F470014FF0000070BD41F085
S31508000AB0FE4141F4780170BD70B54FF0FF0C4CF45F
S31508000AC0E06C1CEA11541DBF1CEA135594EA0C0F7E
S31508000AD095EA0C0F00F0A7F8A4EB050481EA030ECB
S31508000AE052EA03354FEA013100F088804FEA0333B2
S31508000AF04FF0805545EA131343EA12634FEA022280
S31508000B0045EA111545EA10654FEA00260EF0004140
S31508000B109D4208BF964244F1FD0404F5407402D292
S31508000B205B084FEA3202B61A65EB03055B084FEA23
S31508000B3032024FF480104FF4002CB6EB020E75EB20
S31508000B40030E22BFB61A754640EA0C005B084FEA48
S31508000B503202B6EB020E75EB030E22BFB61A7546C5
S31508000B6040EA5C005B084FEA3202B6EB020E75EB10
S31508000B70030E22BFB61A754640EA9C005B084FEA88
S31508000B803202B6EB020E75EB030E22BFB61A754695
S31508000B9040EADC0055EA060E18D04FEA051545EA84
S31508000BA016754FEA06164FEAC30343EA52734FEA2D
S31508000BB0C2025FEA1C1CC0D111F4801F0BD141EAA6
S31508000BC000014FF000004FF0004CB6E711F4801F0B
S31508000BD004BF01430020B4F1FD0C88BFBCF5E06FEB
S31508000BE03FF6AFAEB5EB030C04BFB6EB020C5FEAFB
S31508000BF0500C50F1000041EB045170BD0EF0004E50
S31508000C004EEA113114EB5C04C2BFD4EB0C0541EA81
S31508000C10045170BD41F480114FF0000E013C90E67E
S31508000C2045EA060E8DE60CEA135594EA0C0F08BF42
S31508000C3095EA0C0F3FF43BAF94EA0C0F0AD150EA41
S31508000C4001347FF434AF95EA0C0F7FF425AF1046D4
S31508000C5019462CE795EA0C0F06D152EA03353FF4FC
S31508000C60FDAE1046194622E750EA410618BF52EA79
S31508000C7043067FF4C5AE50EA41047FF40DAF52EA4D
S31508000C8043057FF4EBAE12E74FF0FF3C06E000BFEA
S31508000C904FF0010C02E000BF4FF0010C4DF804CDF7
S31508000CA04FEA410C7FEA6C5C4FEA430C18BF7FEAB7
S31508000CB06C5C1BD001B050EA410C0CBF52EA430CE5
S31508000CC091EA030F02BF90EA020F0020704710F165
S31508000CD0000F91EA030F58BF994208BF90422CBFF4
S31508000CE0D8176FEAE37040F0010070474FEA410CED
S31508000CF07FEA6C5C02D150EA013C07D14FEA430C0B
S31508000D007FEA6C5CD6D152EA033CD3D05DF8040B7B
S31508000D10704700BF8446104662468C4619466346AD
S31508000D2000E000BF01B5FFF7B7FF002848BF10F184
S31508000D30000F01BD4DF808EDFFF7F4FF0CBF0120C9
S31508000D4000205DF808FB00BF4DF808EDFFF7EAFF45
S31508000D5034BF012000205DF808FB00BF4DF808ED00
S31508000D60FFF7E0FF94BF012000205DF808FB00BFF5
S31508000D704DF808EDFFF7CEFF94BF012000205DF87F
S31508000D8008FB00BF4DF808EDFFF7C4FF34BF01208C
S31508000D9000205DF808FB00BF4FEA410C7FEA6C5C57
S31508000DA002D150EA013C0AD14FEA430C7FEA6C5C57
S31508000DB002D152EA033C02D14FF0000070474FF0CF
S31508000DC0010070474FEA410212F5001215D211D5FB
S31508000DD06FF47873B3EB625212D94FEAC12343F02A
S31508000DE0004343EA505311F0004F23FA02F018BFAC
S31508000DF0404270474FF00000704750EA013005D175
S31508000E0011F0004008BF6FF0004070474FF0000037
S31508000E10704700BF4A0011D212F5001211D20DD543
S31508000E206FF47873B3EB62520ED44FEAC12343F0E2
S31508000E30004343EA505323FA02F070474FF000008C
S31508000E40704750EA013002D14FF0FF3070474FF03B
S31508000E50000070474FEA4102B2F1E04324BFB3F500
S31508000E60001CDCF1FE5C0DD901F0004C4FEAC00213
S31508000E704CEA5070B2F1004F40EB830008BF20F0F7
S31508000E800100704711F0804F21D113F13872BCBFB1
S31508000E9001F00040704741F480114FEA5252C2F106
S31508000EA01802C2F1200C10FA0CF320FA02F018BF4F
S31508000EB040F001004FEAC1234FEAD32303FA0CFCA2
S31508000EC040EA0C0023FA02F34FEA4303CCE77FEA31
S31508000ED0625307D150EA01331EBF4FF0FE4040F47B
S31508000EE04000704701F0004040F0FE4040F400002A
S31508000EF0704700BF53B94AB9002908BF00281CBF6C
S31508000F004FF0FF314FF0FF3000F07EB9ADF1080C1D
S31508000F106DE904CE00F006F8DDF804E0DDE9022309
S31508000F2004B070472DE9F0478C460E460446089DE6
S31508000F30002B50D18A4217466CD9B2FA82FEBEF10E
S31508000F40000F0BD0CEF1200420FA04F401FA0EF6B5
S31508000F5044EA060C02FA0EF700FA0EF44FEA1749AD
S31508000F60220CBCFBF9F01FFA87F809FB10C642EA07
S31508000F70064600FB08F3B34209D9F61900F1FF3219
S31508000F8080F02281B34240F21F8102383E44F61AAD
S31508000F90A2B2B6FBF9F309FB136642EA064403FB61
S31508000FA008F8A04509D9E41903F1FF3280F00A814F
S31508000FB0A04540F20781023B3C44C8EB040443EADF
S31508000FC000400021002D62D024FA0EF400232C6084
S31508000FD06B60BDE8F0878B4207D9002D55D00021FC
S31508000FE085E841000846BDE8F087B3FA83F1002991
S31508000FF040F09080B34202D3824200F2F880841A0D
S3150800100066EB03060120B446002D40D085E8101093
S31508001010BDE8F08712B90127B7FBF2F7B7FA87FEE2
S31508001020BEF1000F35D1F31B4FEA17481FFA87FCAC
S315080010300121B3FBF8F0220C08FB103642EA0646FB
S315080010400CFB00F3B34207D9F61900F1FF3202D2BE
S31508001050B34200F2CE801046F61AA2B2B6FBF8F3F7
S3150800106008FB136642EA06440CFB03FCA44507D9B1
S31508001070E41903F1FF3202D2A44500F2B580134603
S31508001080CCEB040443EA00409CE729462846BDE821
S31508001090F087CEF1200106FA0EF307FA0EF720FACA
S315080010A001F94FEA1748CE4049EA0309B6FBF8FAB0
S315080010B04FEA194408FB1A661FFA87FC44EA0643F6
S315080010C00AFB0CF29A4200FA0EF40AD9DB190AF165
S315080010D0FF3180F087809A4240F28480AAF1020AA2
S315080010E03B449B1A1FFA89F9B3FBF8F108FB113345
S315080010F049EA034301FB0CF69E4207D9DB1901F1C5
S31508001100FF326BD29E4269D902393B449B1B41EAA6
S315080011100A418EE7C1F1200E22FA0EF48B402343D2
S3150800112020FA0EF706FA01F44FEA134C26FA0EF6E1
S315080011303C43B6FBFCF9270C0CFB19661FFA83F82F
S3150800114047EA064609FB08F7B74202FA01F200FA2F
S3150800115001FA08D9F61809F1FF3041D2B7423FD94A
S31508001160A9F102091E44F61BA0B2B6FBFCF40CFB5F
S31508001170146640EA064704FB08F8B84507D9FF187D
S3150800118004F1FF3028D2B84526D9023C1F4444EA68
S315080011900940C8EB0707A0FB02894F4544464E465F
S315080011A014D329D065B3BAEB040367EB060707FA2D
S315080011B00EFECB40CF404EEA030385E888000021A7
S315080011C0BDE8F0871346F8E61046E0E6B8EB0204F9
S315080011D069EB03060138E5E70446D8E7114695E7C3
S315080011E08146C0E78A467CE7023B3C4448E7084616
S315080011F00AE702383E442FE7C245E7D33E46D1E721
S315080012002946BDE8F08700BF704700BF70B4840761
S3150800121046D0541E002A41D0CDB2034602E0621ED3
S31508001220E4B3144603F8015B9A07F8D1032C2ED9C8
S31508001230CDB245EA05250F2C45EA054519D903F12E
S3150800124010022646103E0F2E42F8105C42F80C5C3F
S3150800125042F8085C42F8045C02F11002F2D8A4F1E4
S31508001260100222F00F0204F00F041032032C13446C
S315080012700DD91E462246043A032A46F8045BFAD8D4
S31508001280221F22F003020432134404F003042CB193
S31508001290C9B21C4403F8011BA342FBD170BC7047BA
S315080012A014460346C2E700BF024B13B1024800F0DA
S315080012B005B8704700000000C9120008002301465F
S315080012C01A46184600F014B838B5074D074C2C1BBB
S315080012D0A41005D0013C55F8043D9847002CF9D1D7
S315080012E0BDE838400FF0D2B8E0110108DC1101085A
S315080012F02DE9F047254C2568D5F848410646884625
S3150800130092469946C4B360681F2817DC431C76B119
S3150800131004EB80050122C5F888A0D4F8881182401C
S315080013201143022EC4F88811C5F808911ED0023060
S31508001330636044F820800020BDE8F087144B03B3AF
S315080013404FF4C87005F0AEFC0446D0B1D5F8483164
S31508001350002780E88800C5F8484138460123C4F8C4
S315080013608871C4F88C71002EE1D0D1E7D4F88C11BD
S315080013700A43C4F88C21DAE705F5A674C5F848418E
S31508001380C1E74FF0FF30BDE8F08700BFD40401087D
S31508001390A56C00088C460968002900F0DA802DE95A
S315080013A0F04FDFF8C4E183B000254FF0010879E07B
S315080013B04FEA45090323D0F800A003FA09F3DB43F3
S315080013C004F0030B0AEA030A0BFA09FB013F4BEA8E
S315080013D00A0A012FC0F800A040F29780C768DCF817
S315080013E008203B4002FA09F21343C360E30055D5CF
S315080013F0584B584A9B6943F001039361936925F05A
S31508001400030909F1804903F0010309F580390193BD
S3150800141005F00303019AD9F808209B000F279F407F
S31508001420B0F1904F22EA070200F086804A4FB84290
S3150800143000F08480494FB84200F08380484FB84294
S3150800144000F08380474FB8420CBF0427052707FAE8
S3150800145003F31343C9F80830DEF80030F243E70314
S315080014604CBF33431340CEF80030DEF80430A703F0
S315080014704CBF33431340CEF80430DEF80830E70299
S315080014804CBF33431340CEF80830DEF80C30A402C4
S3150800149054BF02EA03061E43CEF80C60013531FA42
S315080014A005F346D008FA05F212EA0106F6D0DCF88A
S315080014B0044024F01007022F7FF47AAF4FEAD50BC9
S315080014C000EB8B0B05F0070ADBF82030DCF8107010
S315080014D04FEA8A0A4FF00F0909FA0AF923EA0909B5
S315080014E007FA0AF343EA0903CBF820304FEA45091D
S315080014F00323076803FA09F3DB4304F0030A1F40D2
S315080015000AFA09FA4AEA07070760876807EA030A30
S31508001510DCF80C7007FA09F747EA0A078760476894
S31508001520C4F3001A27EA02075246AA403A43426021
S3150800153054E703B0BDE8F08F00238AE708FA03F3FF
S3150800154087E7022707FA03F383E7032707FA03F374
S315080015507FE7704700100240000400480008004872
S31508001560000C0048001000480004014003691942B5
S3150800157014BF0120002070470AB981627047816153
S31508001580704700BF036841685A68B1F5827F22F048
S31508001590E0025A6013D0826AB2F5005F07D11A6872
S315080015A022F400521A601A6842F400521A600122A4
S315080015B0002380F85D2080F85C300320704782683D
S315080015C0B2F5004F02D0B2F5806FE4D11A6822F066
S315080015D040021A60DFE700BFF0B5064683B00C4646
S315080015E015461F46316801E06B1C0DD188682040FE
S315080015F013D0B4F5C06FF7D10A7BD2B28DF80720A5
S315080016006B1C9DF80720F1D025B101F0D3FDC01B56
S315080016108542E7D83046FFF7B5FF03B0F0BD00BFF7
S3150800162070B505460C4616462868836803F080039D
S315080016300BB9002070BD631CF7D024B101F0BAFDC8
S31508001640801B8442F0D82846BDE87040FFF79ABF51
S3150800165070B513460D4616460A464FF4C051044661
S31508001660FFF7BAFF28B1236E43F020032366032051
S3150800167070BD324629462046FFF7D2FF0028F2D130
S31508001680F6E700BF2DE9F8430446012084F85C001C
S31508001690884616469946089D01F08CFD94F85D200B
S315080016A06168D2B2012A074610D0B1F5827F08D008
S315080016B002200122002384F85D2084F85C30BDE80E
S315080016C0F883A368002BF3D1042AF1D1B8F1000FEF
S315080016D000F09380002E00F09080B9F1000F00F022
S315080016E08C8094F85D30E2682664042B1CBF0523C1
S315080016F084F85D300023B2F5E06F2366A4F84490C1
S31508001700A4F84690C4F83880A4F83C90E3642365AE
S31508001710A4F83E9073D8B4F846309BB2012B2368E0
S31508001720586840F2CE8020F4805058601868400609
S3150800173006D41868B2F5E06F40F04000186066D825
S31508001740002940F0B380E28F92B2012A40F2E68087
S3150800175038F8022BDA60E38F023B9BB2E3874FF03F
S315080017600109E38F9BB22BB9B4F846309BB2002B24
S3150800177000F08F80B9F1000F17D0E38F9BB2002BD2
S3150800178000F0AA8023689A68910740F1A580E28F45
S3150800179092B2012A40F2B68038F8022BDA60E38F5B
S315080017A0023B9BB2E3874FF00009B4F846309BB280
S315080017B0D3B123689A68D20716D5B4F8462092B2F0
S315080017C0012A40F28C80DA6826F8022BB4F8462003
S315080017D0023A92B2A4F84620B4F8462092B2012AF8
S315080017E040F289804FF001096B1CBAD001F0E2FC87
S315080017F0C01B8542B5D803205BE7012059E723685B
S31508001800586820F4805058601868400691D5002919
S3150800181052D138F8022BDA60E38F013B9BB2E3879B
S315080018204FF00109E38F9BB223B9B4F846309BB257
S31508001830002B2ED0B9F1000F10D0E38F9BB2002BEE
S3150800184047D023689A68910743D538F8022BDA609F
S31508001850E38F013B9BB2E3874FF00009B4F84630AB
S315080018609BB273B123689A68D2070AD5DB6826F853
S31508001870023BB4F84630013B9BB2A4F846304FF021
S315080018800109681CCED001F095FCC01B8542C9D859
S31508001890B1E73A4629462046FFF7DAFE08B1202383
S315080018A02366206E003018BF012002E7E28F92B24D
S315080018B0012A7FF454AF46E7E28F92B2012AAFD1EC
S315080018C0A7E740F480505860186840063FF538AFDF
S315080018D02FE74FF00109C1E74FF0010965E71B7BC8
S315080018E03370B4F84630013B9BB20136A4F8463053
S315080018F04FF0010978E75A6842F480525A604FF06F
S31508001900010971E798F800201A73E38F013B9BB22F
S3150800191008F10108E3874FF0000946E798F8002028
S315080019201A73E38F013B9BB208F10108E38716E7B8
S3150800193000286CD0F0B590F85D30002283B00446DC
S3150800194003F0FF018262002B52D00223216884F83B
S315080019505D300B68E26823F04003B2F5E06F0B6078
S315080019600AD9B2F5706F4AD1236BA56A002B44D108
S315080019700223236300270FE007D0256B0023A36209
S3150800198035B11D464FF4805706E0236BA56A0BB99F
S31508001990012323634FF480576368A66820691E43B2
S315080019A006436069A3690643E0690643206A019015
S315080019B0606A42EA000C019A03F4007016431A0C96
S315080019C0636B02F004024CEA0303304313433B43C0
S315080019D040EA05020A604B60CB69002223F40063E3
S315080019E001251046CB61226684F85D5003B0F0BD30
S315080019F080F85C1003F098FAA7E70027CCE7256B78
S31508001A000023A362002DB3D01D461F46C4E701205C
S31508001A10704700BF30B490F85C40012C02D1022018
S31508001A2030BC704730BCFFF72DBE00BF704700BF03
S31508001A30704700BF194BDB68C3F3022330B4C3F108
S31508001A400705042D03F1040428BF0425062C18D91C
S31508001A50033B01249C40013C22400124AC40013C4C
S31508001A60214001FA03F3002842EA03020CDB00F1E5
S31508001A70604000F561401201D2B280F8002330BC04
S31508001A80704700221346E8E7054B00F00F001201E5
S31508001A900344D2B21A7630BC704700BF00ED00E0AE
S31508001AA0FCEC00E000F01F0101234009024A8B40CC
S31508001AB042F82030704700BF00E100E001680222CA
S31508001AC010B480F83D200A680124034622430A60C0
S31508001AD0002083F83D405DF8044B70470368DA68D8
S31508001AE042F00102DA601A6842F001021A60002028
S31508001AF0704700BF704700BF704700BF704700BF00
S31508001B00704700BF03681A69910710B5044602D5E5
S31508001B10DA68920762D41A69500702D5DA6851075B
S31508001B2049D41A69120702D5DA68100731D41A6936
S31508001B30D20602D5DA68D00618D41A69D10702D5B2
S31508001B40DA68D2076BD41A69100602D5DA68110664
S31508001B506DD41A69520602D5DA68500657D41A693E
S31508001B60910602D5DA68920649D410BD6FF01002C4
S31508001B701A61DB69082213F4407F2277204661D177
S31508001B80FFF7B8FF2046FFF7B9FF00222368227740
S31508001B90D3E76FF008021A61DB69042299072277F6
S31508001BA0204655D1FFF7A6FF2046FFF7A7FF0022DC
S31508001BB023682277BBE76FF004021A619B69022249
S31508001BC013F4407F227720463FD1FFF793FF204644
S31508001BD0FFF794FF002223682277A2E76FF002023C
S31508001BE01A619B6901229B07027728D1FFF782FFBA
S31508001BF02046FFF783FF0022236822778BE76FF0E2
S31508001C00200220461A61BDE81040FFF70FBF6FF0AB
S31508001C1040021A612046FFF773FF23689FE76FF0BB
S31508001C2001021A61204600F099FE23688BE76FF0DF
S31508001C3080021A612046FFF7FBFE236889E7FFF753
S31508001C405BFFD8E7FFF758FF9FE7FFF755FFC1E7A8
S31508001C50FFF752FFABE700BF324A03689042F0B481
S31508001C604CD0B0F1804F24D0A2F59432904220D0C7
S31508001C7002F5806290421CD002F59632904218D046
S31508001C8002F54062904218D002F58062904214D064
S31508001C9002F58062904210D04A698C68096823F080
S31508001CA0800313430360C462816201234361F0BC6D
S31508001CB070474A6823F070031343CA684C691A4D83
S31508001CC08F680E6823F440731A4322F08002224379
S31508001CD0A8420260C76286620AD0144B984207D0AF
S31508001CE003F58063984203D003F580639842DCD1FC
S31508001CF00B69036301234361F0BC70474C68CA68EB
S31508001D004D6923F070031C4324F44074224322F0E7
S31508001D1080022A4302608B68C3620B6883620B6980
S31508001D200363E7E7002C014000340140004001400E
S31508001D30B8B190F83D3010B503F0FF0204465BB128
S31508001D40022384F83D302068211DFFF785FF012313
S31508001D5084F83D30002010BD80F83C2003F02EF9B1
S31508001D60EEE70120704700BF704700BFC0B138B525
S31508001D702422036880F869201A680025044622F0A0
S31508001D8001021A601D605D609D60FFF7EDFFE56664
S31508001D9084F8685084F86950284684F86A5038BD33
S31508001DA001207047F8B5054693482C68AF682E6938
S31508001DB023686A69E969D5F818E03E43324323F493
S31508001DC016430A4323F00C03134323606768EE683F
S31508001DD02A6A27F440573E436660A3684EEA020221
S31508001DE023F4306313438442A3603FD0834B9C4261
S31508001DF05ED0834B9C426BD0824B9C4219D0824B5F
S31508001E009C4205D0B1F5004F00F0CE800120F8BD08
S31508001E1003F5E0331B6B03F44003B3F5800F7ED064
S31508001E2011D9B3F5000F5FD0B3F5400F00F09980D4
S31508001E30E8E703F5E2331B6B03F44013B3F5801FA1
S31508001E406DD000F28780002BDCD1B1F5004F02D1AE
S31508001E5001F05EF96EE001F05BF96B6800EB530088
S31508001E60B0FBF3F080B2E0600020F8BD674B684A2B
S31508001E701B6B03F00303B1F5004FD35C40F097806A
S31508001E80082B00F2918001A252F823F0511E000897
S31508001E90311F0008691F0008A91F0008251F000830
S31508001EA0A91F0008A91F0008A91F0008EF1E00089F
S31508001EB003F5E6331B6B03F44033B3F5803F2ED0AE
S31508001EC0C1D9B3F5003F0FD0B3F5403F49D099E7E4
S31508001ED003F5E4331B6B03F44023B3F5802F1ED0C0
S31508001EE0B1D9B3F5002F4FD1B1F5004F0DD16A68BE
S31508001EF0530803F58033B3FBF2F2C2F3420322F030
S31508001F000F0213439BB2002022E06A68530803F5C8
S31508001F100043B3FBF2F39BB2E3600020F8BDB1F5D2
S31508001F20004F02D100F0F8FF04E000F0F5FF94E757
S31508001F3001F006F96A682C68530803EB4000B0FB09
S31508001F40F2F0C0F3420320F00F0003439BB20020D7
S31508001F50E360F8BDB3F5001FC6D0B3F5401F7FF4A4
S31508001F6051AFB1F5004F13D169684A0802F57403F9
S31508001F7003F51053B3FBF1F3C3F3420223F00F0347
S31508001F8013439BB20020E3E7B3F5402FE9D039E7C6
S31508001F9069684A0802F5F40303F59053B3FBF1F3B5
S31508001FA09BB2E3600020F8BD00230120D0E7082B90
S31508001FB03FF62CAF01A252F823F000BF571E0008C7
S31508001FC0E11F0008911F00080D1E00082B1F0008BE
S31508001FD00D1E00080D1E00080D1E00080B1F000828
S31508001FE001F0AEF86B68044A00EB5300B0FBF3F05F
S31508001FF080B2D0600020F8BD00380140004400409F
S3150800200000480040004C00400050004000100240CC
S3150800201098040108436ADA0710B406D50468826A88
S31508002020616821F400310A4362609C0706D504689A
S31508002030C26A616821F480310A436260590706D58D
S315080020400468026B616821F480210A4362601A07FA
S3150800205006D50468426B616821F400410A43626050
S31508002060DC0606D50468826BA16821F480510A4310
S31508002070A260990606D50468C26BA16821F40051CE
S315080020800A43A2605A0609D50168046C4A6822F414
S3150800209080122243B4F5801F4A600BD01B0606D572
S315080020A00168826C4B6823F4002313434B605DF888
S315080020B0044B70474C68426C24F4C00422434A60BF
S315080020C0ECE700BF2DE9F843089D80460F46164603
S315080020D09946D8F8004001E06B1C0AD1E06937EA56
S315080020E000030CBF012000208642F5D00020BDE881
S315080020F0F8833DB101F05EF8C9EB00008542E8D2ED
S31508002100D8F80040236823F4D0732360A3682022FC
S3150800211023F001030021A360032088F8692088F8CA
S31508002120681088F86A20BDE8F88300BF70B50446D1
S31508002130002582B0C56601F03DF823681A681207C3
S3150800214006460CD41B685B0717D42023002084F8A6
S31508002150693084F8680084F86A3002B070BD6FF0A0
S315080021607E4300932A4603464FF400112046FFF7A4
S31508002170A9FF80B1032002B070BD6FF07E420092C5
S31508002180334600224FF480012046FFF79BFF0028C4
S31508002190DBD00320EFE72368D4E700BF90B390F8BD
S315080021A0693010B503F0FF02044603B322682423FE
S315080021B084F86930136823F0010313602046FFF79B
S315080021C0F1FD01281CD0636AB3B923685A6822F462
S315080021D090425A609A6822F02A029A601A6842F077
S315080021E0010220461A60BDE81040FFF79FBF80F83D
S315080021F0682002F02DFED9E72046FFF70BFFE4E73B
S31508002200012010BD012070472DE9F04180460F4698
S3150800221016461D46D8F8004001E06B1C0AD1A06995
S3150800222037EA00030CBF012000208642F5D00020C3
S31508002230BDE8F0812DB100F0BDFF069BC01A8542AE
S31508002240E8D20023202288F8412088F8403088F810
S3150800225042300320BDE8F08170B505460C461646A7
S31508002260286801E0631C22D183699906FAD51022F1
S315080022702023C261C36183699A0744BF002383622E
S315080022808369DB0703D4836943F0010383614268EA
S315080022900F4B042413402021002243606C64012064
S315080022A085F8411085F8402085F8422070BD24B194
S315080022B000F080FF801B8442D2D20023202285F8BA
S315080022C0412085F8403085F84230032070BD00BFB4
S315080022D000E800FE70B504460D46164601E0691C86
S315080022E011D123689A6992070BD49B69D806F6D54B
S315080022F0324629462046FFF7AFFF0028EFD00120D7
S3150800230070BD002070BD25B100F054FF801B8542CA
S31508002310E7D2636C202100220B43636484F84020D3
S3150800232084F84110032084F8422070BD2DE9F0415D
S315080023300668214C77683C4044F08074C1F3090173
S3150800234044F4005482B00C43D9B244EA014490469E
S315080023507460099A089905461F46FFF7BBFF58B9E6
S31508002360012F2B680FD04FEA18229A620899099A0A
S315080023702846FFF7AFFFB0B16B6C042B18D00320CB
S3150800238002B0BDE8F0815FFA88F29A62099B009371
S315080023902846089B00228021FFF736FF0028EED149
S315080023A002B0BDE8F0812A685FFA88F39362EDE728
S315080023B0012002B0BDE8F081009800FCF0B506687F
S315080023C01B4C77683C4044F40054C1F3090183B0C0
S315080023D021431F46DBB241EA034114467160099A5C
S315080023E008990546FFF776FF50B9012F2B680ED0DE
S315080023F0220A9A620899099A2846FFF76BFF28B1BC
S315080024006B6C042B11D0032003B0F0BD2B68E4B22B
S315080024109C62099B00932846089B00224021FFF7EF
S31508002420F3FE0028EFD103B0F0BD012003B0F0BDE4
S31508002430009800FC70B505460C4616462B689A6946
S3150800244092061ED49B69D90612D424B100F0B2FEB6
S31508002450801B8442F2D26B6C202100220B436B64F2
S3150800246085F8402085F84110032085F8422070BD84
S31508002470324621462846FFF7EFFE0028E5D0012020
S3150800248070BD002070BD00BF002850D0F8B590F888
S315080024904130044603F0FF02002B3FD02368E06872
S315080024A0242284F841201968626821F0010122F08B
S315080024B0706219601A619A68012822F400429A60CB
S315080024C0A26830D042F4044202289A6004BF4FF44E
S315080024D000625A6058686169256A2269A769E669CF
S315080024E040F0007040F400405860D8680A4342EA59
S315080024F0072246EA050120F40040D860DA60196030
S315080025001968002241F0010120251960104662640D
S3150800251084F84150226384F84220F8BD80F84020B0
S3150800252002F0D2FCBAE742F400429A60D2E70120F0
S31508002530704700BF2DE9F04790F8414082B0202C43
S31508002540BDF82C5003D0022002B0BDE8F0870A9CE3
S31508002550002C40D0002D3ED090F84040012CF2D0FF
S315080025601F46012380F8403016468846044600F088
S3150800257021FE814605E000F01DFEC9EB0000192882
S315080025802BD82368986900F400400028F3D10A9BE9
S315080025906362212040214FF0000A0C9B0093CDF87E
S315080025A004903B4684F84100324684F84210C4F849
S315080025B034A0C4F844A0414665852046FFF7B6FE18
S315080025C0A8B1636C84F840A0042B04D00320BBE7B1
S315080025D0636C042BFAD10120B6E70023202284F885
S315080025E0412084F8403084F842300320ACE7638DFC
S315080025F09BB2FF2B57D922683E4B51680B4043F0DC
S31508002600FF73C8F3090143F480330B43FF20208589
S3150800261053608DB203E0638D9BB2002B54D04A46BB
S315080026200C992046FFF756FE0028D1D1636A216827
S31508002630228D581C60621B788B62638D013A013BC0
S315080026409BB292B263852285002AE4D1638D9BB240
S31508002650002BE0D00C9BCDF8009080212046FFF798
S31508002660D3FD244AFF2613460028AFD1618D89B2CF
S31508002670B1420AD92368268559680A4042F0FF7292
S3150800268042F480322A435A60C5E72168628D486859
S3150800269092B2034043F00073D0B243EA00432B439F
S315080026A022854B60B7E72068628D124B416892B26B
S315080026B00B40D5B243F00073C8F3090143EA05435A
S315080026C00B4322854360A4E74A460C992046FFF748
S315080026D0B1FE00287FF47CAF2368074A2021D96120
S315080026E05D682A405A6084F8411084F8400084F8EE
S315080026F0420029E7009800FC00E800FE2DE9F047B3
S3150800270090F8414082B0202CBDF82C5003D002200E
S3150800271002B0BDE8F0870A9C002C48D0002D46D0B0
S3150800272090F84040012CF2D01F46012380F8403033
S3150800273016468846044600F03DFD814605E000F051
S3150800274039FDC9EB0000192833D82368986900F4C5
S3150800275000400028F3D10A9B6362222040214FF0F3
S31508002760000A0C9B0093CDF804903B4684F8410080
S31508002770324684F84210C4F834A0C4F844A041464E
S3150800278065852046FFF71AFEE8B1636C84F840A019
S31508002790042B0CD00320BBE74A460C992046FFF7CA
S315080027A049FE002800F08480636C042BF2D10120D6
S315080027B0AEE70023202284F8412084F8403084F8CC
S315080027C042300320A4E7638D9BB2FF2B5CD92268B5
S315080027D03E4B51680B4043F0FF73C8F3090843F4B6
S315080027E0923348EA0303FF212185536003E0638D92
S315080027F09BB2002BD0D0CDF800900C9B0022042170
S315080028002046FFF701FD0028C4D1636A2268591CD7
S31508002810526A61621A70228D638D013A013B92B247
S315080028209BB222856385002AE1D1638D9BB2002B7A
S31508002830DDD00C9BCDF8009080212046FFF7E4FC04
S31508002840224AFF2513460028A4D1618D89B2A942E0
S315080028500BD92368258559680A4042F0FF7242F46D
S31508002860803248EA02025A60C1E72168628D4868E8
S3150800287092B2034043F00073D0B243EA004348EAF9
S31508002880030322854B60B2E72168628D0F4B4868C7
S31508002890034092B243F00073D0B243F41053C8F326
S315080028A0090843EA004348EA030322854B60A2E786
S315080028B02368074A2021D9615D682A405A6084F84E
S315080028C0411084F8400084F8420021E7009800FC93
S315080028D000E800FE10B5014688B000223620FFF752
S315080028E0A9F83620FFF7DEF8184BDA6942F010022D
S315080028F0DA61DB6903F01003029301A903A8029BBE
S3150800290000F036FC069BC3B900F002FC104C114BD4
S31508002910114A2260A3FB00239B0C0022013B40F2D4
S31508002920E73120466360E1602261A260A261FFF799
S31508002930FFF930B1012008B010BD00F0E9FB4000F6
S31508002940E4E72046FFF7CAF808B010BD00100240B9
S31508002950E00C002083DE1B430010004000F014BE8C
S315080029600148FFF7CFB800BFE00C00202DE9F0437F
S315080029700368D90783B0044643D5C2494A6802F0BA
S315080029800C02042A00F088814A6802F00C02082A20
S3150800299000F07E816368B3F5803F00F04282002B29
S315080029A000F0A681B3F5A02F00F09F82B54B1A68F8
S315080029B022F480321A601A6822F480221A60B14D15
S315080029C0A368EA6A22F00F021343EB6200F0F2FBF7
S315080029D04FF400380746012605E000F0EBFBC01B64
S315080029E0642800F2BE8198FAA8F32A6898FAA8F330
S315080029F0B3FA83F303F01F0306FA03F31342ECD08A
S31508002A0023689F0744D59F4A516811F00C0F00F0C0
S31508002A10F980516801F00C01082900F0EF8022695D
S31508002A20002A00F0D881012292FAA2F3B3FA83F3BE
S31508002A3003F1845303F584139B0016461A6000F0CD
S31508002A40B9FB4FF0020807468E4D05E000F0B2FBD1
S31508002A50C01B022800F2858198FAA8F389492A68DA
S31508002A6098FAA8F3B3FA83F303F01F0306FA03F3FD
S31508002A701342EBD00A68F82393FAA3F36069B3FA12
S31508002A8083F322F0F80200FA03F313430B6023687A
S31508002A901D074FD458077BD57A4BDA69D10000F168
S31508002AA01281DA6942F08052DA61DB6903F08053F9
S31508002AB00193019B4FF00108734D2B68DA0540F12D
S31508002AC04081E368012B00F0B281002B00F05781AA
S31508002AD0052B6C4B1A6A00F0158222F001021A6265
S31508002AE01A6A22F004021A6200F064FB4FF0020927
S31508002AF00746644E012515E099FAA9F3726A99FA10
S31508002B00A9F3B3FA83F303F01F0305FA03F3134299
S31508002B1040F02B8100F04EFB41F28833C01B9842EF
S31508002B2000F21F8199FAA9F399FAA9F3002BE3D0C9
S31508002B30326AE4E7A269002A7BD0012292FAA2F15E
S31508002B40524B504EB1FA81F10B449B0015461A6060
S31508002B5000F030FB4FF00208074605E000F02AFBBC
S31508002B60C01B022800F2FD8098FAA8F398FAA8F389
S31508002B7098FAA8F3726A98FAA8F3B3FA83F303F0FB
S31508002B801F0305FA03F31342E8D02368580783D4D2
S31508002B90E3697BB33B4D6A6802F00C02082A44D00D
S31508002BA0022B4FF0807300F0488193FAA3F3B3FA2F
S31508002BB083F303F1845303F584139B0000221A6000
S31508002BC000F0F8FA4FF000740746012605E000F019
S31508002BD0F1FAC01B022800F2C48094FAA4F32A680A
S31508002BE094FAA4F3B3FA83F303F01F0306FA03F384
S31508002BF01342ECD1002003B0BDE8F0835268D60337
S31508002C003FF50DAF022292FAA2F11E49086892FA20
S31508002C10A2F2B2FA82F202F01F02012101FA02F2CE
S31508002C20024253D022698A4250D0012003B0BDE83F
S31508002C30F083012595FAA5F1144B124EB1FA81F1EC
S31508002C400B449B004FF002081A6000F0B3FA0746DF
S31508002C5005E000F0AFFAC01B022800F2828098FA5D
S31508002C60A8F398FAA8F398FAA8F3726A98FAA8F358
S31508002C70B3FA83F303F01F0305FA03F31342E8D10B
S31508002C8083E700BF001002400070004020819010CA
S31508002C904A68D2037FF57EAE4FF4003292FAA2F16B
S31508002CA09C49086892FAA2F2B2FA82F202F01F026E
S31508002CB0012101FA02F202423FF4A3AE6268002A39
S31508002CC07FF49FAEB1E74FF00008F5E6914DF82284
S31508002CD0296892FAA2F26069B2FA82F221F0F80142
S31508002CE000FA02F20A432A601D077FF5D3AE21E7F0
S31508002CF0884D2B6823F480332B602B6823F48023BC
S31508002D002B60EA6AA36822F00F021343EB6200F015
S31508002D1051FA4FF400380746012604E000F04AFA53
S31508002D20C01B64281DD898FAA8F32A6898FAA8F34D
S31508002D30B3FA83F303F01F0306FA03F31342EDD144
S31508002D405EE62B6843F480732B6000F033FA064680
S31508002D502B68DB053FF5B5AE00F02CFA801B64281E
S31508002D60F6D9032003B0BDE8F083B8F1000F3FF4AD
S31508002D700FAF684AD36923F08053D36108E7654DDE
S31508002D802B6A23F001032B622B6A23F004032B62C0
S31508002D9000F010FA4FF002090746012613E099FAE7
S31508002DA0A9F36A6A99FAA9F3B3FA83F303F01F033E
S31508002DB006FA03F31342D8D000F0FCF941F288333F
S31508002DC0C01B9842CDD899FAA9F399FAA9F3002B12
S31508002DD0E5D02A6AE6E7012595FAA5F3B3FA83F35F
S31508002DE003F1845303F584139B004FF002081A601D
S31508002DF000F0E0F9474E074604E000F0DBF9C01B97
S31508002E000228AED898FAA8F3326898FAA8F3B3FA63
S31508002E1083F303F01F0305FA03F31342EDD1236886
S31508002E2036E63C4A136843F480331360C7E5394AEB
S31508002E30136A43F00103136256E693FAA3F3B3FA4F
S31508002E4083F303F1845303F584139B0000221A606D
S31508002E5000F0B0F94FF000780746012605E000F0CB
S31508002E60A9F9C01B02283FF67CAF98FAA8F32949AE
S31508002E702A6898FAA8F3B3FA83F303F01F0306FA4D
S31508002E8003F313424FF00100E9D14B68656A226AE1
S31508002E9023F474132A4313434B604FF0807393FA59
S31508002EA0A3F3B3FA83F303F1845303F584139B0066
S31508002EB00C461860054600F07DF94FF00076074687
S31508002EC005E000F077F9C01B02283FF64AAF96FAEC
S31508002ED0A6F3226896FAA6F3B3FA83F303F01F0360
S31508002EE005FA03F31342ECD084E603F18043A3F515
S31508002EF03C331A6842F480221A601A6842F4803217
S31508002F001A605CE542F004021A621A6A42F001028B
S31508002F101A62E9E500100240164A536803F00C01EC
S31508002F20082924D110B44FF4701191FAA1F103F4D1
S31508002F307010B1FA81F120FA01F10F4CD06A625C87
S31508002F400F2191FAA1F100F00F00B1FA81F120FAF0
S31508002F5001F12144DB03087C54BF0848084B5DF89F
S31508002F60044B48BFB3FBF0F000FB02F0704704487F
S31508002F70704700BF001002409C04010800093D008C
S31508002F8000127A005E4A136803F007038B422DE9A4
S31508002F90F0410CD2136823F007030B431360136840
S31508002FA003F00703994202D00120BDE8F0810368C7
S31508002FB09C0706D5534D82686C6824F0F0042243BA
S31508002FC06A600C46D907064631D54368012B00F0DE
S31508002FD08480022B0CBF4FF00072022292FAA2F1F3
S31508002FE04849086892FAA2F2B2FA82F202F01F027F
S31508002FF0012101FA02F20242D6D0424D6A6822F055
S31508003000030213436B6000F0D5F87368012B07467B
S3150800301041F288384DD0022B05D155E000F0CAF8A8
S31508003020C01B404556D86B6813F00C0FF6D1344ACE
S31508003030136803F007039C4209D2136823F00703B9
S3150800304023431360136803F007039C42ACD133682B
S315080030505A0706D52B48F268416821F4E0610A430D
S3150800306042601B0707D5274A3169536823F4605322
S3150800307043EAC1035360FFF74FFF224B0146F02294
S315080030805B6892FAA2F2B2FA82F203F0F003D34036
S315080030901D481E4AC35C0F2021FA03F31360FFF78D
S315080030A019FC0020BDE8F08100F084F8C01B4045FB
S315080030B010D86B6803F00C03042BF5D1B7E700F0C2
S315080030C079F8C01B404505D86B6803F00C03082B3C
S315080030D0F5D1ACE70320BDE8F0814FF4003292FA4F
S315080030E0A2F10849096892FAA2F2B2FA82F202F04B
S315080030F01F0203FA02F20A427FF47FAF54E700BFC9
S315080031000020024000100240BC0401080000002014
S31508003110084B4FF4E0625B6892FAA2F2B2FA82F2C6
S3150800312003F4E063D3400449044ACB5C1068D840F2
S31508003130704700BF00100240CC04010800000020C0
S31508003140084B4FF460525B6892FAA2F2B2FA82F226
S3150800315003F46053D3400449044ACB5C1068D84052
S31508003160704700BF00100240CC0401080000002090
S315080031700E4B0F2202605A6802F0030242605A6838
S3150800318002F0F00282605A6802F4E062C2605B688C
S31508003190DB0810B403F4E063054C036123685DF8AB
S315080031A0044B03F007030B60704700BF0010024092
S315080031B000200240014B1868704700BF200D002010
S315080031C01749184B184A194810B4D1F8884044F4DE
S315080031D07004C1F888401C6844F001041C605C68EF
S315080031E022405A601A6822F0847222F480321A60E9
S315080031F01A6822F480221A605A6822F4FE025A607B
S31508003200DA6A22F00F02DA621A6B002410404FF0D5
S31508003210006218639C608A605DF8044B704700BFC3
S3150800322000ED00E0001002400CC07FF8CCFC00FF67
S31508003230002103E00A4B5B584350043109480A4B06
S3150800324042189A42F6D3094A02E0002342F8043BA0
S31508003250074B9A42F9D3FFF7B3FF00F09DF9FEE753
S31508003260E011010800000020B4090020B40900207C
S31508003270980D0020FEE7000001F0D2BA01282DDDE6
S3150800328070B50D680C4628461649042204F06EFBF4
S3150800329070B90025666814493046032204F066FBB7
S315080032A098B112493046032204F060FB40B170BD64
S315080032B0284604220E4904F059FB58B90125E9E7C6
S315080032C02846BDE8704002F0C9B9284602F0B4F9AC
S315080032D06668E6E7074804F003F8DAE7064803F005
S315080032E0FFBF00BF00050108280501082C050108D5
S315080032F00805010810050108D804010800B583B0BF
S31508003300684601F0C3F99DE80600034803B05DF876
S3150800331004EB03F093BF00BF30050108F0B53F4842
S31508003320B5B003F0DDFF34AC3D4803F0D9FF2023E8
S3150800333004F8B93D01E0702B09D02146394804F05C
S31508003340FBF99DF81730652BF5D135B0F0BD364839
S3150800335003F0C6FF00221146B7EE001ADFED330A66
S315080033609FED330A012306A801F0AEFB092001F000
S315080033700BF90446632001F007F9054601F05AFEE9
S3150800338004E0284601F02AF9012813D0002001F0AC
S3150800339071FEA8BB204601F021F90128F1D120468B
S315080033A001F02CF906A801F0C7FB284601F016F92A
S315080033B00128EBD1284601F021F99DED060A01F016
S315080033C089FC8DED030A9DED070A01F083FC03983D
S315080033D08DED020AFDF7F2F99DED020A064610EE9A
S315080033E0100A0F46FDF7EAF93246CDE900013B46D9
S315080033F0104803F023FF002001F03CFE0028C9D046
S31508003400642401E0013C04D0002001F033FE0028CA
S31508003410F8D1094803F064FF35B0F0BD5C05010832
S31508003420BC050108E0050108E4050108CDCC4C3FC0
S315080034300AD7233C18060108F40501080000000015
S315080034402DE9F0414A488AB003F04AFF0AAC4948D8
S3150800345003F046FF202304F80D3D01E0702B0AD047
S315080034602146454804F068F99DF81B30652BF5D1CF
S315080034700AB0BDE8F081414803F032FF0021084652
S315080034809FED371B9FED380B012201F031FC092017
S3150800349001F07AF80446632001F076F8054601F053
S315080034A0C9FD04E0284601F099F8012813D0002048
S315080034B001F0E0FD002842D1204601F08FF80128EE
S315080034C0F0D1204601F09AF801F098FC284601F060
S315080034D085F80128EBD1284601F090F807A801F0F5
S315080034E0ABFC9DED070A01F0F5FB8DED050A9DED98
S315080034F0080A01F0EFFB10EE108A9DED090A01F0AB
S31508003500E9FB05988DED040AFDF758F99DED040AC7
S31508003510064610EE100A0F46FDF750F9CDE90201EE
S315080035204046FDF74BF93246CDE900013B461448C3
S3150800353003F084FE002001F09DFD0028BCD0642421
S3150800354001E0013C04D0002001F094FD0028F8D1E8
S315080035500C4803F0C5FE0AB0BDE8F081AFF3008061
S31508003560000000A09999B93F00000040E17A843F25
S3150800357030060108BC050108E0050108E405010854
S3150800358080060108F405010808B501F049F8BDE808
S31508003590084000F0C9BF00BF08B501F025FD02F0DC
S315080035A029F800F09DFF01F09DF801F091F92948EE
S315080035B003F096FE2849294801F06EF9002821DB18
S315080035C02749284801F068F9002824DB26492748B6
S315080035D001F062F9002827DB2549264801F05CF945
S315080035E000282ADB2449254801F056F900282DDB56
S315080035F0234803F075FE00210846FFF77FFE01F019
S31508003600CDF9FCE71F4803F06BFE1549154801F094
S3150800361043F90028DADA1C4803F062FE1249134817
S3150800362001F03AF90028D7DA184803F059FE10498C
S31508003630104801F031F90028D4DA154803F050FE95
S315080036400D490E4801F028F90028D1DA114803F08F
S3150800365047FECDE7DC0601087D320008140701089D
S31508003660FD320008400701081D33000868070108F5
S31508003670413400089C07010879320008CC07010884
S31508003680F40701081C070108480701087407010820
S31508003690A8070108D4070108002001F071BF00BF80
S315080036A001F09ABF01F08CBFD44BDFEDD57AD54A2D
S315080036B060EEA70A21EE271A2DED0C8BD3ED008AB2
S315080036C093ED015A93ED024A92ED008AD3ED015A21
S315080036D0D3ED024A92ED003A93ED006A93ED027A31
S315080036E0D2ED003AD3ED006A20EE270A25EE605A9D
S315080036F061EE255A26EE416A60EEA66AA8EEC05A21
S31508003700E0EE085AA0EE836AE1EE236AD3ED017A69
S31508003710A1EE445AE0EE676AE0EEE45AA0EE076AC4
S31508003720F5EE401AF6EE007AF1EE10FA25EE275A73
S3150800373065EEA75A26EE276A66EEA76A05D1B5EEA4
S31508003740402AF1EE10FA00F0518162EE027AD2EDCB
S3150800375000DA9FEDAD3A93ED008A93ED011AD3EDA9
S31508003760023AD2ED00AAD3ED008AD3ED019A93ED81
S3150800377000BA93ED019A92ED00CAD2ED004A9FED88
S31508003780A34AD3ED00CA93ED000AD3ED01BA93ED2F
S3150800379001AA93ED027A93ED02DAE1EEA17A2CEE14
S315080037A024CAE2EEA27A73EEA33A17EE901A4908F3
S315080037B0C1F1BE4101F5F81101F5A051123104EE2F
S315080037C0901A67EE837A00EE901A67EEA47AF0EE06
S315080037D0444AE0EEE74A27EE0DDA64EEA04AF1EE37
S315080037E0000A61EEA41A68EEA08A23EEE17AD3ED08
S315080037F0007AA8EE8D7A2CEE20CA24EEC22AACEE08
S31508003800277A7DEEADDA69EEA09A61EEAD7AA2EE80
S315080038102D7AD3ED01DAECEE2D7AB2EE00CAE9EE96
S315080038208D7A2CEE800A2BEE0CBA31EE011A37EEA1
S31508003830687A2BEE8AAA6AEEA0AAABEE007AE2EEC6
S31508003840237A61EE813AABEE0A7AEAEE8A3A29EEF3
S315080038500CBA77EEE97A78EE08BA62EEA42AEAEEAE
S31508003860803AEBEE007AD3ED024A93ED02CA93ED65
S31508003870039AA2EEA87A60EE20AA6BEEE11AE2EEAF
S315080038802B3AEAEEA41AEBEE0A7A67EE074A6AEED4
S31508003890200AE2EEA97AE3EEA34AE0EE8C1AE7EEF6
S315080038A0A74AE2EE011AD3ED038A93ED038A93ED54
S315080038B0030AE1EEA14A14EE901A4908C1F1BE4185
S315080038C001F5F81101F5A051123164EE834A03EEB1
S315080038D0101A64EE834AA3EE644A64EE034A64EE61
S315080038E0E33A24EEC77A64EEE77A64EEE11AA3EEC9
S315080038F0895AE7EE285AA7EE886AE1EE806A93EDC0
S31508003900043A92ED004ADFED403ADFED404AB7EE61
S31508003910007AC7EE037AA5EE274A82ED004A93EDB0
S31508003920044A93ED005AC7EE047AA5EEA75A83ED2A
S31508003930005A93ED045AD3ED015AC7EE057AE6EE1E
S31508003940275AC3ED015AD3ED045A93ED026AC7EE1E
S31508003950257AB0EE467AA6EEA77A83ED027AD2EDFC
S31508003960002A92ED003A93ED007AD3ED007A93EDB2
S31508003970014A93ED015AD3ED025A93ED026AD2ED4C
S31508003980006A67EE277AE2EE837AE4EE057AE5EED8
S31508003990867A17EE901A4908C1F1BE4101F5F81169
S315080039A001F5A051123107EE101A67EEA37A67EEF9
S315080039B0877AE7EE674A64EE877A26EEA77A82ED7B
S315080039C0007A93ED007A27EE277A83ED007A93ED55
S315080039D0017A27EE277A83ED017A93ED027A67EE6C
S315080039E0277AC3ED027ABDEC0C8B7047F5EE402AB8
S315080039F0F1EE10FA7FF4A9AE81E700BFD0090020E6
S31508003A0039FA8E3C0400002012D3363FFF51D83FC6
S31508003A1030B52DED108BDFEDFC7AB5EE403AF1EEC0
S31508003A2010FA97B020EE270A60EEA70A21EE271AA9
S31508003A30F0EE615AB0EE425AF0EE624A05D1F5EE62
S31508003A40403AF1EE10FA00F07683F04CF04DD4EDE2
S31508003A50009A94ED016A94ED028A95ED009AD4EDE8
S31508003A60016AD4ED021AD5ED008A94ED007A94ED38
S31508003A70022AD5ED002AD4ED007A26EE606A61EEB8
S31508003A80266A27EE417A60EEA77AA9EEC06AE1EEC9
S31508003A90227AE0EE096AA0EEA87AD4ED012AA1EE10
S31508003AA0486AE0EE627AE0EEE16AA0EE027AF6EEA5
S31508003AB0002A26EE226A66EEA26A27EE227A67EEC8
S31508003AC0A27AF5EE405AF1EE10FA8DED016ACDEDC7
S31508003AD0026A8DED037ACDED047A05D1B5EE405A2A
S31508003AE0F1EE10FA00F0208363EEA37AD5ED00BA62
S31508003AF0D5ED00CACDED084AE3EE037AB0EE450AE5
S31508003B00E4EE047A95ED005AD4ED008AD5ED00DA94
S31508003B10D4ED001AD4ED016A94ED02FAD5ED00FA57
S31508003B2094ED017AD4ED012A94ED026A8DED097AB5
S31508003B3017EE903A5B08D5ED00EACDED152A95ED1E
S31508003B40007A8DED0A6AD5ED004A94ED00BA95ED36
S31508003B50006AD4ED012A8DED0B6AB0EE65EAC3F171
S31508003B60BE43D5ED005AD4ED020ACDED0C5A03F545
S31508003B70F813DFEDA85A94ED00AACDED0D0A03F56A
S31508003B80A0531233D4ED000A94ED008ACDED072A2E
S31508003B9067EEA57A05EE903A8DED0E8A67EEA57A60
S31508003BA09FED9D8A94ED019A94ED00CA94ED022A40
S31508003BB0D4ED019A94ED011AD4ED01AA94ED02DA36
S31508003BC0CDED10AAA5EEE78A7CEEACCA28EE258ACA
S31508003BD06EEE87EA63EE88AA8DED11DA6CEEAACA54
S31508003BE094ED02DA94ED027A94ED026A8DED0F9A5D
S31508003BF026EE6C6A23EE089A7BEEABBA24EE088AA8
S31508003C00D4ED015AD4ED013A94ED024A94ED023A04
S31508003C108DED13EA6BEE89BA6AEEAE7AA9EE2E6AD4
S31508003C2035EE055AEBEE837A25EE085A78EEA88A21
S31508003C30A5EE256AD4ED005A8DED140AE5EE657AEF
S31508003C4068EE898AD4ED015A2AEE20AAE8EEA57A0A
S31508003C5031EEA13AA9EE0A6A20EE005AF1EE6A5A46
S31508003C60F0EE432AE5EE8A7A2AEE833AAEEE0E5A4B
S31508003C7076EEA66A69EE819AF0EE661AA3EE236AD4
S31508003C80DDED086A9FED63EACDED062AEAEEA97A2C
S31508003C90A6EEA65A68EE226A15EE103AA6EE846AD1
S31508003CA05B08C3F1BE4328EE214AD4ED026ACDED86
S31508003CB0051AE4EE267A03F5F81303F5A0532DEE5C
S31508003CC007DAB1EE497AA7EE296A1233E5EE8D7A5C
S31508003CD0A7EE0D6A25EE0E5A0EEE103A67EEA77A93
S31508003CE007EE103A25EE0E5A9FED4BEAE6EE067AF7
S31508003CF0A7EE45EA17EE900A2EEE07EA24EE8BBAEF
S31508003D002CEE02CAFCF75AFD41EC100B01F000FD3F
S31508003D1051EC100BFDF79EF894ED016AD4ED007A8C
S31508003D20D4ED026ADDED152A9DED0A4A9DED091AC4
S31508003D30DDED055A94ED027ADDED143AD4ED014A2B
S31508003D409DED0B2ACDED124A6CEEA7CA72EEA22A99
S31508003D50F0EE6C7AEBEEC67AB1EE486AE8EE2E7AA9
S31508003D607FEEAFFAE8EEA67A7BEE0B6AE6EE0A7A03
S31508003D70E2EE846A7CEE0C2A6AEEA55AEFEEC12AB8
S31508003D80E3EECE6AE5EE877ADDED133ADDED074A16
S31508003D90DDED081ADDED108A9DED0E1A9DED0F0A70
S31508003DA0B0EE007AB7EE004AAAEE474AE3EECE2A0C
S31508003DB0F0EE4C3AE2EE643AA9EEC74AE6EE297A04
S31508003DC0B0EE633AF0EE4B3A9DED11BAF6EE005AB4
S31508003DD0A1EECE4A35EEE97AE8EE8B3A61EE00EAD4
S31508003DE094ED02BA94ED000AD4ED011AD4ED004A16
S31508003DF0CDED081AE8EE0D7A7DEEADDA94ED02EA1D
S31508003E0037EE4D7A0AE000BF39FA8E3CD009002019
S31508003E100400002012D3363FFF51D83F94ED01DA53
S31508003E20D5ED008AD4ED02FA94ED001AD4ED01CA54
S31508003E30D4ED011AD5ED000ADDED0CBACDED090A6F
S31508003E403FEE0FFA2DEEA66ADDED0D0A05EE100A15
S31508003E50AFEE226A23EE273AEBEEE0EAF1EE00BA7D
S31508003E60A5EE073A6BEEE44A75EECA5A9DED07AA27
S31508003E70DDED120AA4EE846AA2EE0ACA63EEA73A38
S31508003E80DDED064A33EE493A2FEE267AE5EE2E3A6E
S31508003E9027EE8EEA9DED059A94ED00FA64EEA64AA1
S31508003EA075EEE95A67EEA88AB0EE4C2AE5EE0D8A59
S31508003EB020EEE7CAADEEE27AE9EE624A65EEA75A67
S31508003EC0A3EE0E6ADDED090A35EE059A73EEEA3AB7
S31508003ED037EEA7AA6CEEABBAE5EE025A27EE800AD1
S31508003EE060EEE70AF1EE459AB1EE499AA4EE6B7ACE
S31508003EF0ECEE034AA9EE8B0AE9EE210AA3EEA86ABC
S31508003F00D4ED021ADDED058AD5ED00DA94ED012A25
S31508003F10D4ED02EA94ED004A95ED00DA94ED01EA53
S31508003F20D4ED00CA94ED03CAD4ED03BA94ED03BAEE
S31508003F30D4ED03AA21EE4A1A75EEC85AA5EE2F1A31
S31508003F4067EEA11A9DED068A68EEA66A27EE844AF0
S31508003F50E8EE226AE5EE0F1ADDED082AE0EE234ABE
S31508003F60A3EE207AA9EE2E4AA5EE816A65EE222AEC
S31508003F7022EE4A2A67EE8E7AE2EEA54AA5EE2D2AA9
S31508003F80A3EEA17AE3EE046AE9EE8D7A26EE064AF6
S31508003F90A5EE827AA4EEA44AE3EEA76A25EE2C5A89
S31508003FA0A7EE074AE5EE856AF0EE445AE6EEA65A0B
S31508003FB05FED687A15EE903A5B08C3F1BE4303F5E8
S31508003FC0F81303F5A053123365EEA75A07EE903A95
S31508003FD005EE103A65EEA75A5FED717AE5EE657A59
S31508003FE0F0EE675A65EE857A27EEC77A67EEE44AF9
S31508003FF027EEC66A67EEE67ADDED016AE4EE8C6ABC
S31508004000CDED016ADDED026AE6EE2B6ACDED026AB8
S31508004010DDED036AE7EE0B6A9DED047ACDED036AE2
S31508004020A7EEAA7A8DED047A94ED045A95ED006A06
S315080040305FED885A5FED886AB7EE007AC7EE057AB3
S315080040409DED015AA5EE276A85ED006A94ED045A9E
S3150800405094ED006AC7EE057A9DED025AA5EE276A29
S3150800406084ED006A94ED045A94ED016AC7EE057A68
S315080040709DED035AA5EE276A84ED016A94ED045A6C
S3150800408094ED026AC7EE057AB0EE467A9DED046AAB
S31508004090A6EE277A84ED027AD5ED002A95ED003A48
S315080040A094ED007AD4ED007AD4ED013A94ED014A04
S315080040B0D4ED024A94ED025A95ED006A67EE277A26
S315080040C0E2EE837AE3EE847AE4EE857A17EE903AA6
S315080040D05B08C3F1BE4303F5F81303F5A053123387
S315080040E007EE103A67EEA57A67EE877AE7EE676A13
S315080040F066EE877A26EE277A85ED007A94ED007AC1
S3150800410027EE277A84ED007A94ED017A27EE277A4E
S3150800411084ED017A94ED027A67EE277AC4ED027A85
S3150800412017B0BDEC108B30BDF5EE404AF1EE10FA33
S315080041303FF47AAFD8E4B5EE404AF1EE10FA7FF4D0
S3150800414084AC17B0BDEC108BBDE83040FFF7ACBAB5
S31508004150014B83ED040A7047D0090020014B83ED1B
S31508004160030A7047D0090020054A064B1268026008
S3150800417019685A689B6841608260C360704700BFCF
S3150800418004000020D009002010B586B0044601A816
S3150800419001F09AF80028C0F261812378032B00F217
S315080041A05781DFE803F03C4B5A02BDF904309FED16
S315080041B0AD6A07EE903ABDF9063006EE903ABDF9BB
S315080041C0083007EE103AF8EEE77AF8EEE66AB8EE47
S315080041D0C77A67EE867A66EE866A27EE067AC4EDB1
S315080041E0017AC4ED026A84ED037A237C012B00F080
S315080041F02081C0F00F81022B00F0EB80D4ED055A28
S3150800420094ED066A94ED077A94F82030062B00F2AE
S315080042102281DFE803F0CDBCAB9A89683100BDF98D
S3150800422004309FED916A07EE903ABDF9063006EE26
S31508004230903ABDF9083007EE103AC4E7BDF90430E4
S315080042409FED8A6A07EE903ABDF9063006EE903A77
S31508004250BDF9083007EE103AB5E7BDF904309FED11
S31508004260846A07EE903ABDF9063006EE903ABDF933
S31508004270083007EE103AA6E7BDF910309FED7D4AE3
S31508004280DFED7D3A04EE903ABDF9123005EE103AAC
S31508004290BDF9143006EE903AF8EEE44AB8EEC55A7F
S315080042A0F8EEE66A64EE844A25EE045A66EEA36AD8
S315080042B0C4ED094A84ED0A5AF1EE677AF1EE655AB9
S315080042C0B1EE466AB1EE477AF1EE666AC4ED017A56
S315080042D0C4ED055A84ED066A84ED077AC4ED0B6AC7
S315080042E0002006B010BDBDF910309FED644ADFED21
S315080042F0643A04EE903ABDF9123005EE103ABDF96B
S31508004300143006EE903AF8EEE44AB8EEC55A64EE72
S31508004310844A25EE045AF8EEE66AC4ED094A84EDA5
S315080043200A5A66EEA36AC7E7BDF910309FED554AEB
S31508004330DFED553A04EE903ABDF9123005EE103A23
S31508004340BDF9143006EE903ADDE7BDF910309FED61
S315080043504F4ADFED4C3A04EE903ABDF9123005EEBD
S31508004360103ABDF9143006EE903ACCE7BDF9103094
S315080043709FED474ADFED473A04EE903ABDF9123011
S3150800438005EE103ABDF9143006EE903ABBE7BDF9D2
S3150800439010309FED414ADFED413A04EE903ABDF9FF
S315080043A0123005EE103ABDF9143006EE903AAAE737
S315080043B0BDF910309FED3A4ADFED3A3A04EE903AED
S315080043C0BDF9123005EE103ABDF9143006EE903AF2
S315080043D099E7BDF90C30DFED346A05EE903ABDF980
S315080043E00A3006EE103ABDF90E3007EE103AF8EE2E
S315080043F0E55AB8EEC66AB8EEC77A65EEA65A26EE4C
S31508004400266A27EE267AC4ED055A84ED066A84EDF7
S31508004410077AF9E6BDF90C30DFED246A05EE903A25
S31508004420BDF90A3006EE103ABDF90E3007EE103A1D
S31508004430DDE7BDF90C30DFED1E6A05EE903ABDF9F1
S315080044400A3006EE103ABDF90E3007EE103ACEE7FE
S31508004450D4ED017AC9E6D4ED0B6A2DE74FF0FF30AB
S315080044603FE700BF2F17F13B1FBA203A1FBAA03A01
S315080044701FBA203B35788E3B0AD89F3B0C98463BA3
S31508004480ED275E3B0AD7233BE83E3B3BB3A2113BF5
S315080044903BA1C33A1174DA3AF64C993A8D76AC3A9E
S315080044A010506E3A36BF853A295C8F3D295C0F3C21
S315080044B0295C8F3C074A084B11680848013100B54A
S315080044C011605168A3FB01E39B0C00FB13135360B7
S315080044D05DF804FBE409002083DE1B4340420F001D
S315080044E070B501F021F80F4E002215464FF6FF7100
S315080044F002EB420306EB430301321E2A998109485F
S3150800450059814FF000041D72F2D1012380F8BC4096
S315080045104460046080F8BD4080F8BC3080F8BE4036
S3150800452070BD00BFE4090020164991F8BE303BB3C0
S3150800453010B40023012409E05089013880B2508163
S31508004540013391F8BE20DBB29A4217D903EB430236
S3150800455001EB4202107A0028F2D0107A0128EFD037
S31508004560508980B20028E7D11472908980B25081B0
S31508004570013391F8BE20DBB29A42E7D85DF8044BC6
S31508004580704700BFE409002072B6134B93F8BE20AB
S315080045901D2A15D893F8BE2002EB420203EB42020D
S315080045A00221117293F8BE2002EB420203EB42028B
S315080045B0508193F8BE2002EB420203EB420290813F
S315080045C093F8BE200132D2B283F8BE2062B693F8C1
S315080045D0BE000138C0B27047E4090020064B93F8C4
S315080045E0BE20824201D80320704700EB400003EB4F
S315080045F04000007AC0B27047E4090020074B93F8E0
S31508004600BE20824207D900EB400003EB400002239C
S315080046100372042070470320704700BFE409002096
S3150800462010B5184C94F8BC30ABB994F8BD20154BAE
S315080046306AB11968D3F8C020914219D02268D4F813
S31508004640C03010499A4284BF002381F8BD30BDE8C6
S31508004650104000F085BF00F08BFF63680A4A03F537
S315080046607A73636063689342DFD9FFF723FFDCE759
S315080046705968D3F8C420914224BF002283F8BD208C
S31508004680DCE700BFE40900203F420F00F0B5124CFA
S31508004690002384F8BC30064694E8030083B002ABD6
S315080046A003E903000123019D84F8BC30009F00F054
S315080046B059FF0A4962680A4C2844A1FB00539B0C1F
S315080046C004FB1300A1FB021207EB92477060304609
S315080046D0376003B0F0BD00BFE409002083DE1B434A
S315080046E040420F00024B00225A601A60704700BF12
S315080046F0E409002038B5094D094802F0F1FD2B6898
S31508004700002B0ADD002405EBC4030648996802F06D
S3150800471095FD2B680134A342F5DC38BDAC0A0020B0
S315080047200008010818080108F8B506460024FBF732
S3150800473087FD751E274600E00134844208D215F825
S31508004740013F0D2BF8D12F703046FBF779FDF3E7C3
S31508004750F8BD00BF2DE9F04F036883B081460F46C8
S31508004760002B50D0DFF8B480D8F800305B6893424D
S3150800477002D003B0BDE8F08FD9F800501E210135EC
S315080047803960002619E0D8F8000041684B68013BFB
S31508004790002B4B6025DB0B685A1C0A601C7805F851
S315080047A0014C204602F05EFD0D2CAB461DD00A2CAE
S315080047B005F1010519D03968564606F1010A514531
S315080047C0E1D84900D9F8000002F092FD3B68D8F814
S315080047D000005B0041683B604B68013B002B4B6067
S315080047E0D9DA02F07DFFC4B2D9E7002302368BF886
S315080047F00030D9F80000314602F07AFD30463E60B6
S3150800480003B0BDE8F08F1E20019202F04BFA1E237A
S31508004810C9F80000019A3B60A4E700BF30040020F5
S3150800482008B51B2002F01EFD054802F007FD1B20F7
S3150800483002F018FD0348BDE8084002F0FFBC00BFBF
S3150800484020080108240801082DE9F84F114F3B6894
S31508004850002B1BDD93468A4680460024B94603E0B2
S31508004860D9F80030A34211DD07EBC4060F22B06861
S31508004870414603F07BF8013405460028F0D150463E
S315080048807368594698472846BDE8F88F4FF0FF30B9
S31508004890BDE8F88FAC0A002010B50C4C2368132B22
S315080048A010DC226804EBC2020B465360236804EB53
S315080048B0C3030146986802F0FBFF236801332360AF
S315080048C0002010BD4FF0FF3010BD00BFAC0A00201D
S315080048D0F8B5254C254FFEF7DFFE2268002319465A
S315080048E05068022202F03CFF2268002319469068AD
S315080048F0022202F035FFFFF793FF1D4802F0F0FC95
S315080049001C4802F0EDFC1C4802F0EAFC1B4802F0C9
S31508004910E7FC1B4802F0E4FC1A4802F0E1FC1A48DE
S3150800492002F0DEFC194802F0DBFC194802F0D8FC5C
S31508004930002620250F2002F0B5F907EBC603194615
S31508004940986000238A68094CD55401330F2BF9D196
S315080049500136142EEED1002323600E490E48BDE819
S31508004960F840FFF799BF00BF30040020AC0A0020CA
S3150800497028080108500801086C0801088C08010875
S31508004980AC080108CC080108EC0801080C09010864
S3150800499010070108F54600082C0901082DE9F0431F
S315080049A01E2083B002F07EF90090002856D002AC93
S315080049B01E233F4844F8043D02F040FC3D4B1B686B
S315080049C021465A686846FFF7C5FE3B4802F088FC50
S315080049D03A49009803F01AF88146FFF7A5FE282001
S315080049E002F060F935498046002003F00FF80028E8
S315080049F05AD0C8F8000008F10405012404E028602C
S31508004A00FFF792FE013404352C49002002F0FEFF20
S31508004A1027460646142148B1092CF0DD404602F027
S31508004A2067FC2E603046FFF77FFEEBE721464046DF
S31508004A3002F05EFC424639464846FFF705FF002865
S31508004A4008DB009802F036F9404603B0BDE8F043AB
S31508004A5002F030B91A4802F043FCF2E7044602AD08
S31508004A60184802F03DFC1E23114845F8043D02F0A3
S31508004A70E5FB104B1B6829465A686846FFF76AFE2D
S31508004A800D4802F02DFC0D49009802F0BFFF814643
S31508004A90FFF74AFE282002F005F908498046204615
S31508004AA002F0B4FF0028A4D101460746BFE700BFBD
S31508004AB03C090108300400201007010858090108BC
S31508004AC05C09010834090108F0B470EEA07A0446BE
S31508004AD027EE811A60EEA00A00250026002780ED41
S31508004AE02C0A084684ED2A1A1146C4ED2B0A1A46E2
S31508004AF025606560A560E56025616561A561E5617C
S31508004B0025626562A562E56225636563A563256519
S31508004B106565A565E56525666566A566C4F8A0505C
S31508004B20C4F8A450C4E91067C4E9126704F1700315
S31508004B30F0BC00F0D5BA00BF10B504462DED028BC7
S31508004B407030FFF721FB94ED1D0ADFED5D7AD4ED99
S31508004B501E6A94ED1F7AE0EE007AE6EEA67AE7EE94
S31508004B60077AB1EEE77AB4EE477AF1EE10FA40F03A
S31508004B709D80B5EE407AF1EE10FA13D0DFED515A6A
S31508004B80D4ED1E6AD4ED1F7A85EE876A20EE060AF2
S31508004B9026EE867A67EE867A84ED1D0A84ED1E7AFD
S31508004BA0C4ED1F7A9FED478AB1EE400A80EE080AE7
S31508004BB000F00EFEDFED445A94ED226ADFED433A2B
S31508004BC094ED017AD4ED2C6A94ED295AD4ED2B7A1A
S31508004BD0D4ED2A4A9FED3E4A26EE256A30EE470A6C
S31508004BE0C6EE235AA0EE265A25EE276A84ED295AE0
S31508004BF0A0EE246A35EE866AA6EE867A84ED046A05
S31508004C00B0EE470AB0EEC77AB4EEC47AF1EE10FAFF
S31508004C1084ED010A22D4D4ED005A9FED290A94EDB9
S31508004C20217A9FED295A9FED294A94ED286A27EEA5
S31508004C30055AA0EE266ABDEC028B85EE047A66EE6E
S31508004C40277A84ED286AE0EE247A77EE277AE7EE6B
S31508004C50A65AC4ED037AC4ED005A10BD00F010FD43
S31508004C6094ED1E7A20EE088AF7EE007A87EE080A97
S31508004C70B4EEE70AF1EE10FA0EDDB0EE670A00F0C0
S31508004C80A7FDD4ED005AD4ED2C6AD4ED2A4AD4ED0A
S31508004C902B7A30EE650AC2E7FFEE007AB4EE670AB1
S31508004CA0F1EE10FA48BFB0EE670AE8E7B0EE670A19
S31508004CB000F0F0FDB0EE407A94ED1D0A59E700BF0A
S31508004CC000000000C3F51C41DB0F494000003443D7
S31508004CD00000A042DFED047A9FED047A20EE270A51
S31508004CE080EE070A704700BF00003443DB0F4940D7
S31508004CF02DE9F0472DED028BB7EE008AF0EE608ABB
S31508004D0088EE000A924680468946FFF721FA0E4D3C
S31508004D100E4F0F4E0024B0EE680AFFF71FFA0D4A31
S31508004D200D4B82ED008ABDEC028B1C6052463C603E
S31508004D304946346040462C6005F10C036C60AC6053
S31508004D40BDE8F04700F0CCB9500B0020D40900208C
S31508004D50D809002004000020D009002010B52DED48
S31508004D60088BD1ED029A91ED039A214B91ED018AB8
S31508004D7091ED00AA93ED007A69EEA98A29EE890ACF
S31508004D80F0EE687AAAEE070A0446E8EE087AF7EE25
S31508004D9000AAB0EE00BAF0EE6A0AE7EECB0A30EEE9
S31508004DA0000A00F075FD134B84ED000AD3ED007A76
S31508004DB029EE480AAAEE270A30EE000A00F008FD96
S31508004DC00D4B84ED010AD3ED007A28EE290AE9EEA7
S31508004DD0098AAAEE270AF0EE6A0AE8EECB0A30EE4E
S31508004DE0000A00F055FDBDEC088B84ED020A10BDE3
S31508004DF0D0090020D4090020D809002010B50D4C90
S31508004E0004F10C00FFF7C0F994ED080AD4ED090A7D
S31508004E1094ED0A1AD4ED041A94ED052AD4ED062A5F
S31508004E2094ED0C3AD4ED0D3A94ED0E4ABDE81040D7
S31508004E30FEF7EEBD500B002010B584B00446684658
S31508004E40FFF792F969462046FFF788FF04B010BDC0
S31508004E5002681A4B9A4200D07047F0B5184C1948A8
S31508004E60636943F400236361636989B003F400232B
S31508004E701025019303A9022201230326039507257A
S31508004E80019F04920593069607952027FCF782FA58
S31508004E901222002303A90B48059306960795039744
S31508004EA00492FCF777FAA36943F48043A361A369E4
S31508004EB003F480430293029B09B0F0BD0038014019
S31508004EC000100240000800480268144B9A4200D0BD
S31508004ED07047F0B5124C1348636943F48023636145
S31508004EE0636989B003F48023019304220223C02650
S31508004EF0032503A904930593019F03960695079234
S31508004F00FCF748FAE36943F40013E361E36903F441
S31508004F1000130293029B09B0F0BD00BF0054004085
S31508004F2000100240000400480268214B9A4200D053
S31508004F307047F0B51F4C2048636943F4003363613A
S31508004F40636989B003F400330093009B636943F4F3
S31508004F5000136361636903F400130125019303A930
S31508004F6008270326019B0397049505950696FCF7E3
S31508004F7011FA2A4639461048FCF7FEFAE0270022BD
S31508004F80052303A902254FF0904007930696039739
S31508004F9004950592FCF7FEF9A36943F48053A361CF
S31508004FA0A36903F480530293029B09B0F0BD00BFC6
S31508004FB00030014000100240001000480268094B0A
S31508004FC09A4200D0704703F5033382B0DA6942F09B
S31508004FD00202DA61DB6903F002030193019B02B066
S31508004FE0704700BF0004004030B591B04FF48033DD
S31508004FF00125002102244FF4E01206A8069507931E
S315080050000E9308910D940F92FDF7B0FC00B1FEE7E0
S3150800501003460F254FF48062214601A802940393A4
S31508005020059301950492FDF7ADFF00B1FEE711B0B7
S3150800503030BD00BF0D4B0E4A012110B519605169EC
S3150800504041F400315161526982B002F40032019292
S315080050500224002219464FF090409C605A60019C39
S31508005060DA60FCF797F902B010BD00BF8C0B002080
S315080050700010024008B10020704708B501214FF022
S315080050809040FCF773FAA0F10100B0FA80F04009ED
S3150800509008BD00BF30B5002285B005460C460E484F
S315080050A00821FCF769FA6423009303AA022302A9DC
S315080050B00A488DF808508DF80940FCF7ABFC40B952
S315080050C00446012204480821FCF756FA204605B092
S315080050D030BD4FF0FF30FAE700100048A00B002063
S315080050E02DE9F043734C1870197483F82020724D1B
S315080050F0656632230025E36687B0DFF8C8E110232A
S315080051000646904604F16400012222670F46C4F859
S315080051108050C4F8845084F8A630C4F868E0FDF7D7
S31508005120B3F9664B23604FF482724FF4E063626012
S315080051304FF01809A5604FF40072E3602046072374
S3150800514025616561A26125626562A562E362C4F8AC
S315080051501C90FCF7EDFB9723022E8DF8133019D01F
S31508005160032E13D0012E1ABF08238DF814308DF89C
S3150800517014901C238DF81530B8F1060F00F29580AF
S31508005180DFE808F0777B7F83878B0C0038238DF860
S315080051901430EEE728238DF81430EAE7E0238DF87B
S315080051A01630012564260DF113022B4600920024C1
S315080051B0202232210296019541488DF81740FDF7C5
S315080051C0B9F905AA04460092029601952B462322B0
S315080051D032213B48FDF7AEF9002862D1003418BFEA
S315080051E00124012564260DF115022B4600923C2167
S315080051F00022029601953248FDF79CF90DF1160139
S3150800520000282B462A46009102964FF03C0101954C
S315080052102B4818BF0324FDF78DF90DF11702002856
S315080052200092029601952B464FF002024FF03C0180
S31508005230234818BF0424FDF77DF9002818BF052464
S31508005240AF4230D0022F0CBF302500250F21202079
S31508005250FFF720FF294600284FF02300B8BF062491
S31508005260FFF718FF0028ACBF2046072007B0BDE8A7
S31508005270F08320238DF8163093E740238DF81630F7
S315080052808FE760238DF816308BE780238DF816306C
S3150800529087E7A0238DF8163083E7C0238DF81630EC
S315080052A07FE702249DE71025D0E700238DF8163006
S315080052B077E700BFA00B00200054004000300140F3
S315080052C0040C0020020232002DE9F0438DB006AB33
S315080052D06427062481468DE89800A82201233221F6
S315080052E04F48FDF70BFA002840F095809DF818E026
S315080052F09DF819609DF81A009DF81B1002974FF04B
S3150800530000056EF3070566F30F25A9F800509DF80A
S315080053101C209DF81D3060F3070561F30F25A9F8D9
S31508005320025062F3070563F30F2508AB01940322C5
S31508005330A9F804503C21009339480123FDF7DEF90A
S315080053400246002867D19DF820109DF821309DF867
S3150800535022609DF823408DF8160061F3070563F374
S315080053600F259DF82410A9F80C5066F307059DF83B
S3150800537025302C4864F30F25A9F80E5061F307056C
S3150800538063F30F250821A9F81050FCF7F5F8E8246F
S3150800539000970DF1160201230DF1170122488DF829
S315080053A01740FCF737FBB0BB0AAC0DF12E082246B6
S315080053B0009701230DF116011B48FCF72BFB01345E
S315080053C0064640BBA045F2D1012208211548FCF744
S315080053D0D3F89DF828409DF829009DF82A109DF8D5
S315080053E02B309DF82C2064F3070560F30F25A9F8E8
S315080053F0065061F3070563F30F259DF82D30A9F8CC
S31508005400085062F3070563F30F253046A9F80A50DA
S315080054100DB0BDE8F0834FF0FF300DB0BDE8F08366
S31508005420040C002000100048A00B00204FF0FF30AD
S31508005430704700BF4FF400534B600020704700BF11
S31508005440022804D9034B09221A600020704701205C
S31508005450704700BF940D00200020704778B9002AD5
S315080054600CDD70B516460C468D180020FEF718F9A7
S3150800547004F8010BA542F8D1304670BD7047034BBE
S3150800548009221A604FF0FF30704700BF940D0020C4
S31508005490012870B5154614D002280CD1002A08DD5B
S315080054A00C468E1814F8011B0020FEF7FBF8B442D0
S315080054B0F8D1284670BD094B09221A604FF0FF3013
S315080054C070BD002AF5DD0C468E1814F8011B002065
S315080054D0FEF7E8F8A642F8D1284670BD940D0020DC
S315080054E00D4908B50B689BB1EFF308821844904242
S315080054F002D80860184608BD192208490220FFF795
S31508005500C7FF074B0C221A604FF0FF33184608BD39
S31508005510044B0B60E8E700BF500C00207009010837
S31508005520940D0020980D002010B50B4C0B4B2360F2
S31508005530472100234FF6FF722046A360236161606E
